{
  "_format": "hh-sol-artifact-1",
  "contractName": "BulletNFT",
  "sourceName": "contracts/MyEpicNFT.sol",
  "abi": [
    {
      "inputs": [],
      "stateMutability": "nonpayable",
      "type": "constructor"
    },
    {
      "anonymous": false,
      "inputs": [
        {
          "indexed": true,
          "internalType": "address",
          "name": "owner",
          "type": "address"
        },
        {
          "indexed": true,
          "internalType": "address",
          "name": "approved",
          "type": "address"
        },
        {
          "indexed": true,
          "internalType": "uint256",
          "name": "tokenId",
          "type": "uint256"
        }
      ],
      "name": "Approval",
      "type": "event"
    },
    {
      "anonymous": false,
      "inputs": [
        {
          "indexed": true,
          "internalType": "address",
          "name": "owner",
          "type": "address"
        },
        {
          "indexed": true,
          "internalType": "address",
          "name": "operator",
          "type": "address"
        },
        {
          "indexed": false,
          "internalType": "bool",
          "name": "approved",
          "type": "bool"
        }
      ],
      "name": "ApprovalForAll",
      "type": "event"
    },
    {
      "anonymous": false,
      "inputs": [
        {
          "indexed": true,
          "internalType": "address",
          "name": "sender",
          "type": "address"
        },
        {
          "indexed": true,
          "internalType": "uint256",
          "name": "tokenId",
          "type": "uint256"
        }
      ],
      "name": "NewBullet",
      "type": "event"
    },
    {
      "anonymous": false,
      "inputs": [
        {
          "indexed": true,
          "internalType": "address",
          "name": "from",
          "type": "address"
        },
        {
          "indexed": true,
          "internalType": "address",
          "name": "to",
          "type": "address"
        },
        {
          "indexed": true,
          "internalType": "uint256",
          "name": "tokenId",
          "type": "uint256"
        }
      ],
      "name": "Transfer",
      "type": "event"
    },
    {
      "inputs": [
        {
          "internalType": "address",
          "name": "to",
          "type": "address"
        },
        {
          "internalType": "uint256",
          "name": "tokenId",
          "type": "uint256"
        }
      ],
      "name": "approve",
      "outputs": [],
      "stateMutability": "nonpayable",
      "type": "function"
    },
    {
      "inputs": [
        {
          "internalType": "address",
          "name": "owner",
          "type": "address"
        }
      ],
      "name": "balanceOf",
      "outputs": [
        {
          "internalType": "uint256",
          "name": "",
          "type": "uint256"
        }
      ],
      "stateMutability": "view",
      "type": "function"
    },
    {
      "inputs": [
        {
          "internalType": "bytes32",
          "name": "_h",
          "type": "bytes32"
        }
      ],
      "name": "firstColor",
      "outputs": [
        {
          "internalType": "string",
          "name": "",
          "type": "string"
        }
      ],
      "stateMutability": "view",
      "type": "function"
    },
    {
      "inputs": [
        {
          "internalType": "bytes32",
          "name": "_h",
          "type": "bytes32"
        }
      ],
      "name": "firstWord",
      "outputs": [
        {
          "internalType": "string",
          "name": "",
          "type": "string"
        }
      ],
      "stateMutability": "view",
      "type": "function"
    },
    {
      "inputs": [
        {
          "internalType": "uint256",
          "name": "tokenId",
          "type": "uint256"
        }
      ],
      "name": "getApproved",
      "outputs": [
        {
          "internalType": "address",
          "name": "",
          "type": "address"
        }
      ],
      "stateMutability": "view",
      "type": "function"
    },
    {
      "inputs": [
        {
          "internalType": "uint256",
          "name": "_nonce",
          "type": "uint256"
        }
      ],
      "name": "getHash",
      "outputs": [
        {
          "internalType": "bytes32",
          "name": "",
          "type": "bytes32"
        }
      ],
      "stateMutability": "view",
      "type": "function"
    },
    {
      "inputs": [
        {
          "internalType": "address",
          "name": "owner",
          "type": "address"
        },
        {
          "internalType": "address",
          "name": "operator",
          "type": "address"
        }
      ],
      "name": "isApprovedForAll",
      "outputs": [
        {
          "internalType": "bool",
          "name": "",
          "type": "bool"
        }
      ],
      "stateMutability": "view",
      "type": "function"
    },
    {
      "inputs": [],
      "name": "makeBulletNFT",
      "outputs": [],
      "stateMutability": "nonpayable",
      "type": "function"
    },
    {
      "inputs": [],
      "name": "name",
      "outputs": [
        {
          "internalType": "string",
          "name": "",
          "type": "string"
        }
      ],
      "stateMutability": "view",
      "type": "function"
    },
    {
      "inputs": [
        {
          "internalType": "uint256",
          "name": "tokenId",
          "type": "uint256"
        }
      ],
      "name": "ownerOf",
      "outputs": [
        {
          "internalType": "address",
          "name": "",
          "type": "address"
        }
      ],
      "stateMutability": "view",
      "type": "function"
    },
    {
      "inputs": [
        {
          "internalType": "address",
          "name": "from",
          "type": "address"
        },
        {
          "internalType": "address",
          "name": "to",
          "type": "address"
        },
        {
          "internalType": "uint256",
          "name": "tokenId",
          "type": "uint256"
        }
      ],
      "name": "safeTransferFrom",
      "outputs": [],
      "stateMutability": "nonpayable",
      "type": "function"
    },
    {
      "inputs": [
        {
          "internalType": "address",
          "name": "from",
          "type": "address"
        },
        {
          "internalType": "address",
          "name": "to",
          "type": "address"
        },
        {
          "internalType": "uint256",
          "name": "tokenId",
          "type": "uint256"
        },
        {
          "internalType": "bytes",
          "name": "_data",
          "type": "bytes"
        }
      ],
      "name": "safeTransferFrom",
      "outputs": [],
      "stateMutability": "nonpayable",
      "type": "function"
    },
    {
      "inputs": [
        {
          "internalType": "bytes32",
          "name": "_h",
          "type": "bytes32"
        }
      ],
      "name": "secondColor",
      "outputs": [
        {
          "internalType": "string",
          "name": "",
          "type": "string"
        }
      ],
      "stateMutability": "view",
      "type": "function"
    },
    {
      "inputs": [
        {
          "internalType": "bytes32",
          "name": "_h",
          "type": "bytes32"
        }
      ],
      "name": "secondWord",
      "outputs": [
        {
          "internalType": "string",
          "name": "",
          "type": "string"
        }
      ],
      "stateMutability": "view",
      "type": "function"
    },
    {
      "inputs": [
        {
          "internalType": "address",
          "name": "operator",
          "type": "address"
        },
        {
          "internalType": "bool",
          "name": "approved",
          "type": "bool"
        }
      ],
      "name": "setApprovalForAll",
      "outputs": [],
      "stateMutability": "nonpayable",
      "type": "function"
    },
    {
      "inputs": [
        {
          "internalType": "bytes4",
          "name": "interfaceId",
          "type": "bytes4"
        }
      ],
      "name": "supportsInterface",
      "outputs": [
        {
          "internalType": "bool",
          "name": "",
          "type": "bool"
        }
      ],
      "stateMutability": "view",
      "type": "function"
    },
    {
      "inputs": [],
      "name": "symbol",
      "outputs": [
        {
          "internalType": "string",
          "name": "",
          "type": "string"
        }
      ],
      "stateMutability": "view",
      "type": "function"
    },
    {
      "inputs": [
        {
          "internalType": "bytes32",
          "name": "_h",
          "type": "bytes32"
        }
      ],
      "name": "thirdWord",
      "outputs": [
        {
          "internalType": "string",
          "name": "",
          "type": "string"
        }
      ],
      "stateMutability": "view",
      "type": "function"
    },
    {
      "inputs": [
        {
          "internalType": "uint256",
          "name": "tokenId",
          "type": "uint256"
        }
      ],
      "name": "tokenURI",
      "outputs": [
        {
          "internalType": "string",
          "name": "",
          "type": "string"
        }
      ],
      "stateMutability": "view",
      "type": "function"
    },
    {
      "inputs": [
        {
          "internalType": "address",
          "name": "from",
          "type": "address"
        },
        {
          "internalType": "address",
          "name": "to",
          "type": "address"
        },
        {
          "internalType": "uint256",
          "name": "tokenId",
          "type": "uint256"
        }
      ],
      "name": "transferFrom",
      "outputs": [],
      "stateMutability": "nonpayable",
      "type": "function"
    }
  ],
  "bytecode": "0x608060405260405180610120016040528060e28152602001620055c860e29139600b908051906020019062000036929190620019bd565b506040518060800160405280604e8152602001620057f0604e9139600c908051906020019062000068929190620019bd565b5060405180610100016040528060c58152602001620056aa60c59139600d90805190602001906200009b929190620019bd565b506040518060c00160405280608181526020016200576f60819139600e9080519060200190620000cd929190620019bd565b506040518060a00160405280606e81526020016200583e606e9139600f9080519060200190620000ff929190620019bd565b506040518060400160405280600d81526020017f3c2f746578743e3c2f7376673e00000000000000000000000000000000000000815250601090805190602001906200014d929190620019bd565b506040518060a001604052806040518060400160405280600781526020017f233641303430460000000000000000000000000000000000000000000000000081525081526020016040518060400160405280600781526020017f233944303230380000000000000000000000000000000000000000000000000081525081526020016040518060400160405280600781526020017f234430303030300000000000000000000000000000000000000000000000000081525081526020016040518060400160405280600781526020017f234443324630320000000000000000000000000000000000000000000000000081525081526020016040518060400160405280600781526020017f234538354430340000000000000000000000000000000000000000000000000081525081525060119060056200029092919062001a4e565b5060405180610c2001604052806040518060400160405280600781526020017f6675636b696e670000000000000000000000000000000000000000000000000081525081526020016040518060400160405280600381526020017f676f74000000000000000000000000000000000000000000000000000000000081525081526020016040518060400160405280600581526020017f646f6e277400000000000000000000000000000000000000000000000000000081525081526020016040518060400160405280600381526020017f6f7574000000000000000000000000000000000000000000000000000000000081525081526020016040518060400160405280600581526020017f676f696e6700000000000000000000000000000000000000000000000000000081525081526020016040518060400160405280600381526020017f6d616e000000000000000000000000000000000000000000000000000000000081525081526020016040518060400160405280600481526020017f6675636b0000000000000000000000000000000000000000000000000000000081525081526020016040518060400160405280600381526020017f616e64000000000000000000000000000000000000000000000000000000000081525081526020016040518060400160405280600381526020017f676574000000000000000000000000000000000000000000000000000000000081525081526020016040518060400160405280600481526020017f636f6d650000000000000000000000000000000000000000000000000000000081525081526020016040518060400160405280600481526020017f686572650000000000000000000000000000000000000000000000000000000081525081526020016040518060400160405280600581526020017f726967687400000000000000000000000000000000000000000000000000000081525081526020016040518060400160405280600481526020017f6b6e6f770000000000000000000000000000000000000000000000000000000081525081526020016040518060400160405280600481526020017f77616e740000000000000000000000000000000000000000000000000000000081525081526020016040518060400160405280600481526020017f736869740000000000000000000000000000000000000000000000000000000081525081526020016040518060400160405280600381526020017f68696d000000000000000000000000000000000000000000000000000000000081525081526020016040518060400160405280600381526020017f666f72000000000000000000000000000000000000000000000000000000000081525081526020016040518060400160405280600381526020017f736565000000000000000000000000000000000000000000000000000000000081525081526020016040518060400160405280600581526020017f61626f757400000000000000000000000000000000000000000000000000000081525081526020016040518060400160405280600c81526020017f6d6f746865726675636b6572000000000000000000000000000000000000000081525081526020016040518060400160405280600581526020017f61696e277400000000000000000000000000000000000000000000000000000081525081526020016040518060400160405280600481526020017f74616b650000000000000000000000000000000000000000000000000000000081525081526020016040518060400160405280600481526020017f686176650000000000000000000000000000000000000000000000000000000081525081526020016040518060400160405280600481526020017f6a7573740000000000000000000000000000000000000000000000000000000081525081526020016040518060400160405280600581526020017f646f696e6700000000000000000000000000000000000000000000000000000081525081526020016040518060400160405280600681526020017f62756c6c6574000000000000000000000000000000000000000000000000000081525081526020016040518060400160405280600481526020017f6c696b650000000000000000000000000000000000000000000000000000000081525081526020016040518060400160405280600381526020017f6e6f77000000000000000000000000000000000000000000000000000000000081525081526020016040518060400160405280600681526020017f6c6573746572000000000000000000000000000000000000000000000000000081525081526020016040518060400160405280600381526020017f686f77000000000000000000000000000000000000000000000000000000000081525081526020016040518060400160405280600481526020017f676976650000000000000000000000000000000000000000000000000000000081525081526020016040518060400160405280600481526020017f6c6f6f6b0000000000000000000000000000000000000000000000000000000081525081526020016040518060400160405280600581526020017f7468696e6b00000000000000000000000000000000000000000000000000000081525081526020016040518060400160405280600381526020017f776879000000000000000000000000000000000000000000000000000000000081525081526020016040518060400160405280600481526020017f6261636b0000000000000000000000000000000000000000000000000000000081525081526020016040518060400160405280600481526020017f796561680000000000000000000000000000000000000000000000000000000081525081526020016040518060400160405280600481526020017f74656c6c0000000000000000000000000000000000000000000000000000000081525081526020016040518060400160405280600381526020017f6c6574000000000000000000000000000000000000000000000000000000000081525081526020016040518060400160405280600981526020017f736f6d657468696e67000000000000000000000000000000000000000000000081525081526020016040518060400160405280600381526020017f617373000000000000000000000000000000000000000000000000000000000081525081526020016040518060400160405280600681526020017f746861742773000000000000000000000000000000000000000000000000000081525081526020016040518060400160405280600481526020017f646f776e0000000000000000000000000000000000000000000000000000000081525081526020016040518060400160405280600481526020017f676f6f640000000000000000000000000000000000000000000000000000000081525081526020016040518060400160405280600481526020017f736f6d650000000000000000000000000000000000000000000000000000000081525081526020016040518060400160405280600681526020017f6c6974746c65000000000000000000000000000000000000000000000000000081525081526020016040518060400160405280600481526020017f6f7665720000000000000000000000000000000000000000000000000000000081525081526020016040518060400160405280600481526020017f74616e6b0000000000000000000000000000000000000000000000000000000081525081526020016040518060400160405280600681526020017f61726f756e64000000000000000000000000000000000000000000000000000081525081526020016040518060400160405280600581526020017f636f756c6400000000000000000000000000000000000000000000000000000081525081526020016040518060400160405280600481526020017f7768656e0000000000000000000000000000000000000000000000000000000081525081526020016040518060400160405280600481526020017f626162790000000000000000000000000000000000000000000000000000000081525081526020016040518060400160405280600381526020017f636172000000000000000000000000000000000000000000000000000000000081525081526020016040518060400160405280600781526020017f74616c6b696e670000000000000000000000000000000000000000000000000081525081526020016040518060400160405280600481526020017f74696d650000000000000000000000000000000000000000000000000000000081525081526020016040518060400160405280600481526020017f736875740000000000000000000000000000000000000000000000000000000081525081526020016040518060400160405280600481526020017f6d616b650000000000000000000000000000000000000000000000000000000081525081526020016040518060400160405280600781526020017f62726f746865720000000000000000000000000000000000000000000000000081525081526020016040518060400160405280600781526020017f74686f756768740000000000000000000000000000000000000000000000000081525081526020016040518060400160405280600581526020017f6c6f75697300000000000000000000000000000000000000000000000000000081525081526020016040518060400160405280600481526020017f6c6f76650000000000000000000000000000000000000000000000000000000081525081526020016040518060400160405280600481526020017f77696c6c0000000000000000000000000000000000000000000000000000000081525081526020016040518060400160405280600481526020017f727562790000000000000000000000000000000000000000000000000000000081525081526020016040518060400160405280600481526020017f73746f700000000000000000000000000000000000000000000000000000000081525081526020016040518060400160405280600381526020017f6f6c64000000000000000000000000000000000000000000000000000000000081525081526020016040518060400160405280600481526020017f66696e640000000000000000000000000000000000000000000000000000000081525081526020016040518060400160405280600581526020017f706164647900000000000000000000000000000000000000000000000000000081525081526020016040518060400160405280600381526020017f686974000000000000000000000000000000000000000000000000000000000081525081526020016040518060400160405280600381526020017f626f79000000000000000000000000000000000000000000000000000000000081525081526020016040518060400160405280600481526020017f657665720000000000000000000000000000000000000000000000000000000081525081526020016040518060400160405280600381526020017f646964000000000000000000000000000000000000000000000000000000000081525081526020016040518060400160405280600381526020017f746f6f000000000000000000000000000000000000000000000000000000000081525081526020016040518060400160405280600781526020017f626563617573650000000000000000000000000000000000000000000000000081525081526020016040518060400160405280600681526020017f73686f756c64000000000000000000000000000000000000000000000000000081525081526020016040518060400160405280600a81526020017f756e6465727374616e640000000000000000000000000000000000000000000081525081526020016040518060400160405280600481526020017f74616c6b0000000000000000000000000000000000000000000000000000000081525081526020016040518060400160405280600581526020017f626c61636b00000000000000000000000000000000000000000000000000000081525081526020016040518060400160405280600481526020017f636172650000000000000000000000000000000000000000000000000000000081525081526020016040518060400160405280600781526020017f746865726527730000000000000000000000000000000000000000000000000081525081526020016040518060400160405280600681526020017f6c697374656e000000000000000000000000000000000000000000000000000081525081526020016040518060400160405280600581526020017f6d6f6e657900000000000000000000000000000000000000000000000000000081525081526020016040518060400160405280600581526020017f627574636800000000000000000000000000000000000000000000000000000081525081526020016040518060400160405280600381526020017f736179000000000000000000000000000000000000000000000000000000000081525081526020016040518060400160405280600581526020017f7468696e6700000000000000000000000000000000000000000000000000000081525081526020016040518060400160405280600681526020017f70656f706c65000000000000000000000000000000000000000000000000000081525081526020016040518060400160405280600781526020017f70726f626c656d0000000000000000000000000000000000000000000000000081525081526020016040518060400160405280600481526020017f697427730000000000000000000000000000000000000000000000000000000081525081526020016040518060400160405280600681526020017f7265616c6c79000000000000000000000000000000000000000000000000000081525081526020016040518060400160405280600781526020017f746f6e696768740000000000000000000000000000000000000000000000000081525081526020016040518060400160405280600381526020017f74776f000000000000000000000000000000000000000000000000000000000081525081526020016040518060400160405280600481526020017f6469636b0000000000000000000000000000000000000000000000000000000081525081526020016040518060400160405280600481526020017f737461790000000000000000000000000000000000000000000000000000000081525081526020016040518060400160405280600381526020017f77686f000000000000000000000000000000000000000000000000000000000081525081526020016040518060400160405280600381526020017f776179000000000000000000000000000000000000000000000000000000000081525081526020016040518060400160405280600681526020017f706c65617365000000000000000000000000000000000000000000000000000081525081526020016040518060400160405280600581526020017f6a6573757300000000000000000000000000000000000000000000000000000081525081526020016040518060400160405280600681526020017f626574746572000000000000000000000000000000000000000000000000000081525081526020016040518060400160405280600581526020017f626974636800000000000000000000000000000000000000000000000000000081525081525060149060616200190892919062001ab5565b503480156200191657600080fd5b506040518060400160405280600a81526020017f42756c6c657431393936000000000000000000000000000000000000000000008152506040518060400160405280600481526020017f424c4c540000000000000000000000000000000000000000000000000000000081525081600090805190602001906200199b929190620019bd565b508060019080519060200190620019b4929190620019bd565b50505062001c0e565b828054620019cb9062001ba9565b90600052602060002090601f016020900481019282620019ef576000855562001a3b565b82601f1062001a0a57805160ff191683800117855562001a3b565b8280016001018555821562001a3b579182015b8281111562001a3a57825182559160200191906001019062001a1d565b5b50905062001a4a919062001b1c565b5090565b82805482825590600052602060002090810192821562001aa2579160200282015b8281111562001aa157825182908051906020019062001a90929190620019bd565b509160200191906001019062001a6f565b5b50905062001ab1919062001b3b565b5090565b82805482825590600052602060002090810192821562001b09579160200282015b8281111562001b0857825182908051906020019062001af7929190620019bd565b509160200191906001019062001ad6565b5b50905062001b18919062001b3b565b5090565b5b8082111562001b3757600081600090555060010162001b1d565b5090565b5b8082111562001b5f576000818162001b55919062001b63565b5060010162001b3c565b5090565b50805462001b719062001ba9565b6000825580601f1062001b85575062001ba6565b601f01602090049060005260206000209081019062001ba5919062001b1c565b5b50565b6000600282049050600182168062001bc257607f821691505b6020821081141562001bd95762001bd862001bdf565b5b50919050565b7f4e487b7100000000000000000000000000000000000000000000000000000000600052602260045260246000fd5b6139aa8062001c1e6000396000f3fe608060405234801561001057600080fd5b506004361061012c5760003560e01c80636b2fafa9116100ad578063b88d4fde11610071578063b88d4fde1461038d578063be89b4e7146103a9578063c87b56dd146103d9578063ccacc56014610409578063e985e9c5146104135761012c565b80636b2fafa9146102c35780636b311020146102f357806370a082311461032357806395d89b4114610353578063a22cb465146103715761012c565b806323b872dd116100f457806323b872dd146101fb57806324ce8528146102175780633f5a34991461024757806342842e0e146102775780636352211e146102935761012c565b806301ffc9a714610131578063067be9501461016157806306fdde0314610191578063081812fc146101af578063095ea7b3146101df575b600080fd5b61014b6004803603810190610146919061263c565b610443565b6040516101589190612c8d565b60405180910390f35b61017b60048036038101906101769190612613565b610525565b6040516101889190612cc3565b60405180910390f35b610199610624565b6040516101a69190612cc3565b60405180910390f35b6101c960048036038101906101c4919061268e565b6106b6565b6040516101d69190612c26565b60405180910390f35b6101f960048036038101906101f491906125d7565b61073b565b005b610215600480360381019061021091906124d1565b610853565b005b610231600480360381019061022c9190612613565b6108b3565b60405161023e9190612cc3565b60405180910390f35b610261600480360381019061025c9190612613565b6109b4565b60405161026e9190612cc3565b60405180910390f35b610291600480360381019061028c91906124d1565b610ab6565b005b6102ad60048036038101906102a8919061268e565b610ad6565b6040516102ba9190612c26565b60405180910390f35b6102dd60048036038101906102d8919061268e565b610b88565b6040516102ea9190612ca8565b60405180910390f35b61030d60048036038101906103089190612613565b610be0565b60405161031a9190612cc3565b60405180910390f35b61033d6004803603810190610338919061246c565b610cd4565b60405161034a9190612ee5565b60405180910390f35b61035b610d8c565b6040516103689190612cc3565b60405180910390f35b61038b6004803603810190610386919061259b565b610e1e565b005b6103a760048036038101906103a29190612520565b610e34565b005b6103c360048036038101906103be9190612613565b610e96565b6040516103d09190612cc3565b60405180910390f35b6103f360048036038101906103ee919061268e565b610f98565b6040516104009190612cc3565b60405180910390f35b6104116110ea565b005b61042d60048036038101906104289190612495565b6112d2565b60405161043a9190612c8d565b60405180910390f35b60007f80ac58cd000000000000000000000000000000000000000000000000000000007bffffffffffffffffffffffffffffffffffffffffffffffffffffffff1916827bffffffffffffffffffffffffffffffffffffffffffffffffffffffff1916148061050e57507f5b5e139f000000000000000000000000000000000000000000000000000000007bffffffffffffffffffffffffffffffffffffffffffffffffffffffff1916827bffffffffffffffffffffffffffffffffffffffffffffffffffffffff1916145b8061051e575061051d82611366565b5b9050919050565b6060601480805490506064808560001c61053f9190613004565b610549919061322f565b610553919061322f565b8154811061058a577f4e487b7100000000000000000000000000000000000000000000000000000000600052603260045260246000fd5b90600052602060002001805461059f90613183565b80601f01602080910402602001604051908101604052809291908181526020018280546105cb90613183565b80156106185780601f106105ed57610100808354040283529160200191610618565b820191906000526020600020905b8154815290600101906020018083116105fb57829003601f168201915b50505050509050919050565b60606000805461063390613183565b80601f016020809104026020016040519081016040528092919081815260200182805461065f90613183565b80156106ac5780601f10610681576101008083540402835291602001916106ac565b820191906000526020600020905b81548152906001019060200180831161068f57829003601f168201915b5050505050905090565b60006106c1826113d0565b610700576040517f08c379a00000000000000000000000000000000000000000000000000000000081526004016106f790612e65565b60405180910390fd5b6004600083815260200190815260200160002060009054906101000a900473ffffffffffffffffffffffffffffffffffffffff169050919050565b600061074682610ad6565b90508073ffffffffffffffffffffffffffffffffffffffff168373ffffffffffffffffffffffffffffffffffffffff1614156107b7576040517f08c379a00000000000000000000000000000000000000000000000000000000081526004016107ae90612ea5565b60405180910390fd5b8073ffffffffffffffffffffffffffffffffffffffff166107d661143c565b73ffffffffffffffffffffffffffffffffffffffff1614806108055750610804816107ff61143c565b6112d2565b5b610844576040517f08c379a000000000000000000000000000000000000000000000000000000000815260040161083b90612da5565b60405180910390fd5b61084e8383611444565b505050565b61086461085e61143c565b826114fd565b6108a3576040517f08c379a000000000000000000000000000000000000000000000000000000000815260040161089a90612ec5565b60405180910390fd5b6108ae8383836115db565b505050565b60606014808054905060646127108560001c6108cf9190613004565b6108d9919061322f565b6108e3919061322f565b8154811061091a577f4e487b7100000000000000000000000000000000000000000000000000000000600052603260045260246000fd5b90600052602060002001805461092f90613183565b80601f016020809104026020016040519081016040528092919081815260200182805461095b90613183565b80156109a85780601f1061097d576101008083540402835291602001916109a8565b820191906000526020600020905b81548152906001019060200180831161098b57829003601f168201915b50505050509050919050565b606060118080549050600a620186a08560001c6109d19190613004565b6109db919061322f565b6109e5919061322f565b81548110610a1c577f4e487b7100000000000000000000000000000000000000000000000000000000600052603260045260246000fd5b906000526020600020018054610a3190613183565b80601f0160208091040260200160405190810160405280929190818152602001828054610a5d90613183565b8015610aaa5780601f10610a7f57610100808354040283529160200191610aaa565b820191906000526020600020905b815481529060010190602001808311610a8d57829003601f168201915b50505050509050919050565b610ad183838360405180602001604052806000815250610e34565b505050565b6000806002600084815260200190815260200160002060009054906101000a900473ffffffffffffffffffffffffffffffffffffffff169050600073ffffffffffffffffffffffffffffffffffffffff168173ffffffffffffffffffffffffffffffffffffffff161415610b7f576040517f08c379a0000000000000000000000000000000000000000000000000000000008152600401610b7690612de5565b60405180910390fd5b80915050919050565b6000610b9382611842565b610bb23373ffffffffffffffffffffffffffffffffffffffff16611842565b604051602001610bc3929190612ad1565b604051602081830303815290604052805190602001209050919050565b60606014808054905060648460001c610bf9919061322f565b610c03919061322f565b81548110610c3a577f4e487b7100000000000000000000000000000000000000000000000000000000600052603260045260246000fd5b906000526020600020018054610c4f90613183565b80601f0160208091040260200160405190810160405280929190818152602001828054610c7b90613183565b8015610cc85780601f10610c9d57610100808354040283529160200191610cc8565b820191906000526020600020905b815481529060010190602001808311610cab57829003601f168201915b50505050509050919050565b60008073ffffffffffffffffffffffffffffffffffffffff168273ffffffffffffffffffffffffffffffffffffffff161415610d45576040517f08c379a0000000000000000000000000000000000000000000000000000000008152600401610d3c90612dc5565b60405180910390fd5b600360008373ffffffffffffffffffffffffffffffffffffffff1673ffffffffffffffffffffffffffffffffffffffff168152602001908152602001600020549050919050565b606060018054610d9b90613183565b80601f0160208091040260200160405190810160405280929190818152602001828054610dc790613183565b8015610e145780601f10610de957610100808354040283529160200191610e14565b820191906000526020600020905b815481529060010190602001808311610df757829003601f168201915b5050505050905090565b610e30610e2961143c565b83836119ef565b5050565b610e45610e3f61143c565b836114fd565b610e84576040517f08c379a0000000000000000000000000000000000000000000000000000000008152600401610e7b90612ec5565b60405180910390fd5b610e9084848484611b5c565b50505050565b606060118080549050600a620f42408560001c610eb39190613004565b610ebd919061322f565b610ec7919061322f565b81548110610efe577f4e487b7100000000000000000000000000000000000000000000000000000000600052603260045260246000fd5b906000526020600020018054610f1390613183565b80601f0160208091040260200160405190810160405280929190818152602001828054610f3f90613183565b8015610f8c5780601f10610f6157610100808354040283529160200191610f8c565b820191906000526020600020905b815481529060010190602001808311610f6f57829003601f168201915b50505050509050919050565b6060610fa3826113d0565b610fe2576040517f08c379a0000000000000000000000000000000000000000000000000000000008152600401610fd990612e45565b60405180910390fd5b600060066000848152602001908152602001600020805461100290613183565b80601f016020809104026020016040519081016040528092919081815260200182805461102e90613183565b801561107b5780601f106110505761010080835404028352916020019161107b565b820191906000526020600020905b81548152906001019060200180831161105e57829003601f168201915b50505050509050600061108c611bb8565b90506000815114156110a25781925050506110e5565b6000825111156110d75780826040516020016110bf929190612ad1565b604051602081830303815290604052925050506110e5565b6110e084611bcf565b925050505b919050565b60006110f66007611c76565b9050600061110382610b88565b905061110e81610be0565b600890805190602001906111239291906122e3565b5061112d81610525565b600990805190602001906111429291906122e3565b5061114c816108b3565b600a90805190602001906111619291906122e3565b5061116b816109b4565b601290805190602001906111809291906122e3565b5061118a81610e96565b6013908051906020019061119f9291906122e3565b50600060086009600a6040516020016111ba93929190612af5565b60405160208183030381529060405290506000600b6012600c6013600d6008600e6009600f600a60106040516020016111fd9b9a99989796959493929190612b26565b604051602081830303815290604052905060006112428361121d84611c84565b60405160200161122e929190612bbf565b604051602081830303815290604052611c84565b90506000816040516020016112579190612c04565b60405160208183030381529060405290506112723387611e42565b61127c8682611e60565b853373ffffffffffffffffffffffffffffffffffffffff167f7b7e3cce93987216d4900d6cfe95612a4145d9c6c890ec0dfe57e365194611e760405160405180910390a36112ca6007611ed4565b505050505050565b6000600560008473ffffffffffffffffffffffffffffffffffffffff1673ffffffffffffffffffffffffffffffffffffffff16815260200190815260200160002060008373ffffffffffffffffffffffffffffffffffffffff1673ffffffffffffffffffffffffffffffffffffffff16815260200190815260200160002060009054906101000a900460ff16905092915050565b60007f01ffc9a7000000000000000000000000000000000000000000000000000000007bffffffffffffffffffffffffffffffffffffffffffffffffffffffff1916827bffffffffffffffffffffffffffffffffffffffffffffffffffffffff1916149050919050565b60008073ffffffffffffffffffffffffffffffffffffffff166002600084815260200190815260200160002060009054906101000a900473ffffffffffffffffffffffffffffffffffffffff1673ffffffffffffffffffffffffffffffffffffffff1614159050919050565b600033905090565b816004600083815260200190815260200160002060006101000a81548173ffffffffffffffffffffffffffffffffffffffff021916908373ffffffffffffffffffffffffffffffffffffffff160217905550808273ffffffffffffffffffffffffffffffffffffffff166114b783610ad6565b73ffffffffffffffffffffffffffffffffffffffff167f8c5be1e5ebec7d5bd14f71427d1e84f3dd0314c0f7b2291e5b200ac8c7c3b92560405160405180910390a45050565b6000611508826113d0565b611547576040517f08c379a000000000000000000000000000000000000000000000000000000000815260040161153e90612d85565b60405180910390fd5b600061155283610ad6565b90508073ffffffffffffffffffffffffffffffffffffffff168473ffffffffffffffffffffffffffffffffffffffff161480611594575061159381856112d2565b5b806115d257508373ffffffffffffffffffffffffffffffffffffffff166115ba846106b6565b73ffffffffffffffffffffffffffffffffffffffff16145b91505092915050565b8273ffffffffffffffffffffffffffffffffffffffff166115fb82610ad6565b73ffffffffffffffffffffffffffffffffffffffff1614611651576040517f08c379a000000000000000000000000000000000000000000000000000000000815260040161164890612d05565b60405180910390fd5b600073ffffffffffffffffffffffffffffffffffffffff168273ffffffffffffffffffffffffffffffffffffffff1614156116c1576040517f08c379a00000000000000000000000000000000000000000000000000000000081526004016116b890612d45565b60405180910390fd5b6116cc838383611eea565b6116d7600082611444565b6001600360008573ffffffffffffffffffffffffffffffffffffffff1673ffffffffffffffffffffffffffffffffffffffff1681526020019081526020016000206000828254611727919061308f565b925050819055506001600360008473ffffffffffffffffffffffffffffffffffffffff1673ffffffffffffffffffffffffffffffffffffffff168152602001908152602001600020600082825461177e9190612fae565b92505081905550816002600083815260200190815260200160002060006101000a81548173ffffffffffffffffffffffffffffffffffffffff021916908373ffffffffffffffffffffffffffffffffffffffff160217905550808273ffffffffffffffffffffffffffffffffffffffff168473ffffffffffffffffffffffffffffffffffffffff167fddf252ad1be2c89b69c2b068fc378daa952ba7f163c4a11628f55a4df523b3ef60405160405180910390a461183d838383611eef565b505050565b6060600082141561188a576040518060400160405280600181526020017f300000000000000000000000000000000000000000000000000000000000000081525090506119ea565b600082905060005b600082146118bc5780806118a5906131e6565b915050600a826118b59190613004565b9150611892565b60008167ffffffffffffffff8111156118fe577f4e487b7100000000000000000000000000000000000000000000000000000000600052604160045260246000fd5b6040519080825280601f01601f1916602001820160405280156119305781602001600182028036833780820191505090505b5090505b600085146119e357600182611949919061308f565b9150600a85611958919061322f565b60306119649190612fae565b60f81b8183815181106119a0577f4e487b7100000000000000000000000000000000000000000000000000000000600052603260045260246000fd5b60200101907effffffffffffffffffffffffffffffffffffffffffffffffffffffffffffff1916908160001a905350600a856119dc9190613004565b9450611934565b8093505050505b919050565b8173ffffffffffffffffffffffffffffffffffffffff168373ffffffffffffffffffffffffffffffffffffffff161415611a5e576040517f08c379a0000000000000000000000000000000000000000000000000000000008152600401611a5590612d65565b60405180910390fd5b80600560008573ffffffffffffffffffffffffffffffffffffffff1673ffffffffffffffffffffffffffffffffffffffff16815260200190815260200160002060008473ffffffffffffffffffffffffffffffffffffffff1673ffffffffffffffffffffffffffffffffffffffff16815260200190815260200160002060006101000a81548160ff0219169083151502179055508173ffffffffffffffffffffffffffffffffffffffff168373ffffffffffffffffffffffffffffffffffffffff167f17307eab39ab6107e8899845ad3d59bd9653f200f220920489ca2b5937696c3183604051611b4f9190612c8d565b60405180910390a3505050565b611b678484846115db565b611b7384848484611ef4565b611bb2576040517f08c379a0000000000000000000000000000000000000000000000000000000008152600401611ba990612ce5565b60405180910390fd5b50505050565b606060405180602001604052806000815250905090565b6060611bda826113d0565b611c19576040517f08c379a0000000000000000000000000000000000000000000000000000000008152600401611c1090612e85565b60405180910390fd5b6000611c23611bb8565b90506000815111611c435760405180602001604052806000815250611c6e565b80611c4d84611842565b604051602001611c5e929190612ad1565b6040516020818303038152906040525b915050919050565b600081600001549050919050565b60606000825190506000811415611cad5760405180602001604052806000815250915050611e3d565b60006003600283611cbe9190612fae565b611cc89190613004565b6004611cd49190613035565b90506000602082611ce59190612fae565b67ffffffffffffffff811115611d24577f4e487b7100000000000000000000000000000000000000000000000000000000600052604160045260246000fd5b6040519080825280601f01601f191660200182016040528015611d565781602001600182028036833780820191505090505b5090506000604051806060016040528060408152602001613935604091399050600181016020830160005b86811015611dfa5760038101905062ffffff818a015116603f8160121c168401518060081b905060ff603f83600c1c1686015116810190508060081b905060ff603f8360061c1686015116810190508060081b905060ff603f831686015116810190508060e01b90508084526004840193505050611d81565b506003860660018114611e145760028114611e2457611e2f565b613d3d60f01b6002830352611e2f565b603d60f81b60018303525b508484525050819450505050505b919050565b611e5c82826040518060200160405280600081525061208b565b5050565b611e69826113d0565b611ea8576040517f08c379a0000000000000000000000000000000000000000000000000000000008152600401611e9f90612e05565b60405180910390fd5b80600660008481526020019081526020016000209080519060200190611ecf9291906122e3565b505050565b6001816000016000828254019250508190555050565b505050565b505050565b6000611f158473ffffffffffffffffffffffffffffffffffffffff166120e6565b1561207e578373ffffffffffffffffffffffffffffffffffffffff1663150b7a02611f3e61143c565b8786866040518563ffffffff1660e01b8152600401611f609493929190612c41565b602060405180830381600087803b158015611f7a57600080fd5b505af1925050508015611fab57506040513d601f19601f82011682018060405250810190611fa89190612665565b60015b61202e573d8060008114611fdb576040519150601f19603f3d011682016040523d82523d6000602084013e611fe0565b606091505b50600081511415612026576040517f08c379a000000000000000000000000000000000000000000000000000000000815260040161201d90612ce5565b60405180910390fd5b805181602001fd5b63150b7a0260e01b7bffffffffffffffffffffffffffffffffffffffffffffffffffffffff1916817bffffffffffffffffffffffffffffffffffffffffffffffffffffffff191614915050612083565b600190505b949350505050565b6120958383612109565b6120a26000848484611ef4565b6120e1576040517f08c379a00000000000000000000000000000000000000000000000000000000081526004016120d890612ce5565b60405180910390fd5b505050565b6000808273ffffffffffffffffffffffffffffffffffffffff163b119050919050565b600073ffffffffffffffffffffffffffffffffffffffff168273ffffffffffffffffffffffffffffffffffffffff161415612179576040517f08c379a000000000000000000000000000000000000000000000000000000000815260040161217090612e25565b60405180910390fd5b612182816113d0565b156121c2576040517f08c379a00000000000000000000000000000000000000000000000000000000081526004016121b990612d25565b60405180910390fd5b6121ce60008383611eea565b6001600360008473ffffffffffffffffffffffffffffffffffffffff1673ffffffffffffffffffffffffffffffffffffffff168152602001908152602001600020600082825461221e9190612fae565b92505081905550816002600083815260200190815260200160002060006101000a81548173ffffffffffffffffffffffffffffffffffffffff021916908373ffffffffffffffffffffffffffffffffffffffff160217905550808273ffffffffffffffffffffffffffffffffffffffff16600073ffffffffffffffffffffffffffffffffffffffff167fddf252ad1be2c89b69c2b068fc378daa952ba7f163c4a11628f55a4df523b3ef60405160405180910390a46122df60008383611eef565b5050565b8280546122ef90613183565b90600052602060002090601f0160209004810192826123115760008555612358565b82601f1061232a57805160ff1916838001178555612358565b82800160010185558215612358579182015b8281111561235757825182559160200191906001019061233c565b5b5090506123659190612369565b5090565b5b8082111561238257600081600090555060010161236a565b5090565b600061239961239484612f25565b612f00565b9050828152602081018484840111156123b157600080fd5b6123bc848285613141565b509392505050565b6000813590506123d3816138c1565b92915050565b6000813590506123e8816138d8565b92915050565b6000813590506123fd816138ef565b92915050565b60008135905061241281613906565b92915050565b60008151905061242781613906565b92915050565b600082601f83011261243e57600080fd5b813561244e848260208601612386565b91505092915050565b6000813590506124668161391d565b92915050565b60006020828403121561247e57600080fd5b600061248c848285016123c4565b91505092915050565b600080604083850312156124a857600080fd5b60006124b6858286016123c4565b92505060206124c7858286016123c4565b9150509250929050565b6000806000606084860312156124e657600080fd5b60006124f4868287016123c4565b9350506020612505868287016123c4565b925050604061251686828701612457565b9150509250925092565b6000806000806080858703121561253657600080fd5b6000612544878288016123c4565b9450506020612555878288016123c4565b935050604061256687828801612457565b925050606085013567ffffffffffffffff81111561258357600080fd5b61258f8782880161242d565b91505092959194509250565b600080604083850312156125ae57600080fd5b60006125bc858286016123c4565b92505060206125cd858286016123d9565b9150509250929050565b600080604083850312156125ea57600080fd5b60006125f8858286016123c4565b925050602061260985828601612457565b9150509250929050565b60006020828403121561262557600080fd5b6000612633848285016123ee565b91505092915050565b60006020828403121561264e57600080fd5b600061265c84828501612403565b91505092915050565b60006020828403121561267757600080fd5b600061268584828501612418565b91505092915050565b6000602082840312156126a057600080fd5b60006126ae84828501612457565b91505092915050565b6126c0816130c3565b82525050565b6126cf816130d5565b82525050565b6126de816130e1565b82525050565b60006126ef82612f6b565b6126f98185612f81565b9350612709818560208601613150565b6127128161331c565b840191505092915050565b600061272882612f76565b6127328185612f92565b9350612742818560208601613150565b61274b8161331c565b840191505092915050565b600061276182612f76565b61276b8185612fa3565b935061277b818560208601613150565b80840191505092915050565b6000815461279481613183565b61279e8186612fa3565b945060018216600081146127b957600181146127ca576127fd565b60ff198316865281860193506127fd565b6127d385612f56565b60005b838110156127f5578154818901526001820191506020810190506127d6565b838801955050505b50505092915050565b6000612813603283612f92565b915061281e8261332d565b604082019050919050565b6000612836602583612f92565b91506128418261337c565b604082019050919050565b6000612859601c83612f92565b9150612864826133cb565b602082019050919050565b600061287c602483612f92565b9150612887826133f4565b604082019050919050565b600061289f601983612f92565b91506128aa82613443565b602082019050919050565b60006128c2602c83612f92565b91506128cd8261346c565b604082019050919050565b60006128e5603883612f92565b91506128f0826134bb565b604082019050919050565b6000612908602a83612f92565b91506129138261350a565b604082019050919050565b600061292b602983612f92565b915061293682613559565b604082019050919050565b600061294e602e83612f92565b9150612959826135a8565b604082019050919050565b6000612971600283612fa3565b915061297c826135f7565b600282019050919050565b6000612994602083612f92565b915061299f82613620565b602082019050919050565b60006129b7603183612f92565b91506129c282613649565b604082019050919050565b60006129da602c83612f92565b91506129e582613698565b604082019050919050565b60006129fd602f83612f92565b9150612a08826136e7565b604082019050919050565b6000612a20600a83612fa3565b9150612a2b82613736565b600a82019050919050565b6000612a43602183612f92565b9150612a4e8261375f565b604082019050919050565b6000612a66601d83612fa3565b9150612a71826137ae565b601d82019050919050565b6000612a89603183612f92565b9150612a94826137d7565b604082019050919050565b6000612aac606983612fa3565b9150612ab782613826565b606982019050919050565b612acb81613137565b82525050565b6000612add8285612756565b9150612ae98284612756565b91508190509392505050565b6000612b018286612787565b9150612b0d8285612787565b9150612b198284612787565b9150819050949350505050565b6000612b32828e612787565b9150612b3e828d612787565b9150612b4a828c612787565b9150612b56828b612787565b9150612b62828a612787565b9150612b6e8289612787565b9150612b7a8288612787565b9150612b868287612787565b9150612b928286612787565b9150612b9e8285612787565b9150612baa8284612787565b91508190509c9b505050505050505050505050565b6000612bca82612a13565b9150612bd68285612756565b9150612be182612a9f565b9150612bed8284612756565b9150612bf882612964565b91508190509392505050565b6000612c0f82612a59565b9150612c1b8284612756565b915081905092915050565b6000602082019050612c3b60008301846126b7565b92915050565b6000608082019050612c5660008301876126b7565b612c6360208301866126b7565b612c706040830185612ac2565b8181036060830152612c8281846126e4565b905095945050505050565b6000602082019050612ca260008301846126c6565b92915050565b6000602082019050612cbd60008301846126d5565b92915050565b60006020820190508181036000830152612cdd818461271d565b905092915050565b60006020820190508181036000830152612cfe81612806565b9050919050565b60006020820190508181036000830152612d1e81612829565b9050919050565b60006020820190508181036000830152612d3e8161284c565b9050919050565b60006020820190508181036000830152612d5e8161286f565b9050919050565b60006020820190508181036000830152612d7e81612892565b9050919050565b60006020820190508181036000830152612d9e816128b5565b9050919050565b60006020820190508181036000830152612dbe816128d8565b9050919050565b60006020820190508181036000830152612dde816128fb565b9050919050565b60006020820190508181036000830152612dfe8161291e565b9050919050565b60006020820190508181036000830152612e1e81612941565b9050919050565b60006020820190508181036000830152612e3e81612987565b9050919050565b60006020820190508181036000830152612e5e816129aa565b9050919050565b60006020820190508181036000830152612e7e816129cd565b9050919050565b60006020820190508181036000830152612e9e816129f0565b9050919050565b60006020820190508181036000830152612ebe81612a36565b9050919050565b60006020820190508181036000830152612ede81612a7c565b9050919050565b6000602082019050612efa6000830184612ac2565b92915050565b6000612f0a612f1b565b9050612f1682826131b5565b919050565b6000604051905090565b600067ffffffffffffffff821115612f4057612f3f6132ed565b5b612f498261331c565b9050602081019050919050565b60008190508160005260206000209050919050565b600081519050919050565b600081519050919050565b600082825260208201905092915050565b600082825260208201905092915050565b600081905092915050565b6000612fb982613137565b9150612fc483613137565b9250827fffffffffffffffffffffffffffffffffffffffffffffffffffffffffffffffff03821115612ff957612ff8613260565b5b828201905092915050565b600061300f82613137565b915061301a83613137565b92508261302a5761302961328f565b5b828204905092915050565b600061304082613137565b915061304b83613137565b9250817fffffffffffffffffffffffffffffffffffffffffffffffffffffffffffffffff048311821515161561308457613083613260565b5b828202905092915050565b600061309a82613137565b91506130a583613137565b9250828210156130b8576130b7613260565b5b828203905092915050565b60006130ce82613117565b9050919050565b60008115159050919050565b6000819050919050565b60007fffffffff0000000000000000000000000000000000000000000000000000000082169050919050565b600073ffffffffffffffffffffffffffffffffffffffff82169050919050565b6000819050919050565b82818337600083830152505050565b60005b8381101561316e578082015181840152602081019050613153565b8381111561317d576000848401525b50505050565b6000600282049050600182168061319b57607f821691505b602082108114156131af576131ae6132be565b5b50919050565b6131be8261331c565b810181811067ffffffffffffffff821117156131dd576131dc6132ed565b5b80604052505050565b60006131f182613137565b91507fffffffffffffffffffffffffffffffffffffffffffffffffffffffffffffffff82141561322457613223613260565b5b600182019050919050565b600061323a82613137565b915061324583613137565b9250826132555761325461328f565b5b828206905092915050565b7f4e487b7100000000000000000000000000000000000000000000000000000000600052601160045260246000fd5b7f4e487b7100000000000000000000000000000000000000000000000000000000600052601260045260246000fd5b7f4e487b7100000000000000000000000000000000000000000000000000000000600052602260045260246000fd5b7f4e487b7100000000000000000000000000000000000000000000000000000000600052604160045260246000fd5b6000601f19601f8301169050919050565b7f4552433732313a207472616e7366657220746f206e6f6e20455243373231526560008201527f63656976657220696d706c656d656e7465720000000000000000000000000000602082015250565b7f4552433732313a207472616e736665722066726f6d20696e636f72726563742060008201527f6f776e6572000000000000000000000000000000000000000000000000000000602082015250565b7f4552433732313a20746f6b656e20616c7265616479206d696e74656400000000600082015250565b7f4552433732313a207472616e7366657220746f20746865207a65726f2061646460008201527f7265737300000000000000000000000000000000000000000000000000000000602082015250565b7f4552433732313a20617070726f766520746f2063616c6c657200000000000000600082015250565b7f4552433732313a206f70657261746f7220717565727920666f72206e6f6e657860008201527f697374656e7420746f6b656e0000000000000000000000000000000000000000602082015250565b7f4552433732313a20617070726f76652063616c6c6572206973206e6f74206f7760008201527f6e6572206e6f7220617070726f76656420666f7220616c6c0000000000000000602082015250565b7f4552433732313a2062616c616e636520717565727920666f7220746865207a6560008201527f726f206164647265737300000000000000000000000000000000000000000000602082015250565b7f4552433732313a206f776e657220717565727920666f72206e6f6e657869737460008201527f656e7420746f6b656e0000000000000000000000000000000000000000000000602082015250565b7f45524337323155524953746f726167653a2055524920736574206f66206e6f6e60008201527f6578697374656e7420746f6b656e000000000000000000000000000000000000602082015250565b7f227d000000000000000000000000000000000000000000000000000000000000600082015250565b7f4552433732313a206d696e7420746f20746865207a65726f2061646472657373600082015250565b7f45524337323155524953746f726167653a2055524920717565727920666f722060008201527f6e6f6e6578697374656e7420746f6b656e000000000000000000000000000000602082015250565b7f4552433732313a20617070726f76656420717565727920666f72206e6f6e657860008201527f697374656e7420746f6b656e0000000000000000000000000000000000000000602082015250565b7f4552433732314d657461646174613a2055524920717565727920666f72206e6f60008201527f6e6578697374656e7420746f6b656e0000000000000000000000000000000000602082015250565b7f7b226e616d65223a202200000000000000000000000000000000000000000000600082015250565b7f4552433732313a20617070726f76616c20746f2063757272656e74206f776e6560008201527f7200000000000000000000000000000000000000000000000000000000000000602082015250565b7f646174613a6170706c69636174696f6e2f6a736f6e3b6261736536342c000000600082015250565b7f4552433732313a207472616e736665722063616c6c6572206973206e6f74206f60008201527f776e6572206e6f7220617070726f766564000000000000000000000000000000602082015250565b7f222c20226465736372697074696f6e223a202233206f6620313030206d6f737460008201527f206672657175656e7420776f7264732066726f6d2042756c6c6574206d6f766960208201527f6520222c2022696d616765223a2022646174613a696d6167652f7376672b786d60408201527f6c3b6261736536342c0000000000000000000000000000000000000000000000606082015250565b6138ca816130c3565b81146138d557600080fd5b50565b6138e1816130d5565b81146138ec57600080fd5b50565b6138f8816130e1565b811461390357600080fd5b50565b61390f816130eb565b811461391a57600080fd5b50565b61392681613137565b811461393157600080fd5b5056fe4142434445464748494a4b4c4d4e4f505152535455565758595a6162636465666768696a6b6c6d6e6f707172737475767778797a303132333435363738392b2fa2646970667358221220b062fe49a631e7cc9505ceba33f68cc4514c3cac8cbae3c47b7d167e2dff779f64736f6c634300080100333c73766720786d6c6e733d22687474703a2f2f7777772e77332e6f72672f323030302f73766722207072657365727665417370656374526174696f3d22784d696e594d696e206d656574222076696577426f783d223020302033353020333530223e3c7374796c653e2e626173657b66696c6c3a233337303631373b666f6e742d66616d696c793a73657269663b666f6e742d73697a653a313470787d3c2f7374796c653e3c726563742077696474683d223130302522206865696768743d2231303025222066696c6c3d2223313631623333222f3e3c706174682066696c6c3d222220643d226d37302e3731203134312e343231203231322e313333203231322e3133324c37302e3731203536352e3638356c2d3231322e3133322d3231322e3133327a222f3e3c7465787420783d223336252220793d223230252220646f6d696e616e742d626173656c696e653d226d6964646c652220746578742d616e63686f723d226d6964646c652220666f6e742d66616d696c793d226d6f6e736572726174222066696c6c3d22234642423533392220666f6e742d73697a653d22312e32656d223e3c2f746578743e3c7465787420783d223630252220793d223430252220646f6d696e616e742d626173656c696e653d226d6964646c652220746578742d616e63686f723d226d6964646c652220666f6e742d66616d696c793d226c61746f222066696c6c3d22234642423533392220666f6e742d73697a653d22322e35656d223e2220643d226d3133342e33352d3134382e343932203139372e3939203139372e39392d3139372e3939203139372e39392d3139372e39392d3139372e39397a222f3e3c706174682066696c6c3d223c2f746578743e3c7465787420783d223330252220793d223830252220646f6d696e616e742d626173656c696e653d226d6964646c652220746578742d616e63686f723d226d6964646c65222066696c6c3d22234642423533392220666f6e742d73697a653d22312e35656d223e",
  "linkReferences": {},
  "deployedLinkReferences": {}
}